:020000040800F2
:10000000C0060020690200089D1800085515000868
:100010009918000859060008251A00080000000079
:10002000000000000000000000000000A51800080B
:100030005D06000800000000A1180008A9180008CB
:10004000830200088302000883020008830200087C
:10005000830200088302000883020008830200086C
:10006000830200088302000883020008830200085C
:10007000830200088302000883020008830200084C
:1000800083020008830200088302000800000000C9
:1000900000000000000000000000000083020008D3
:1000A000830200088302000883020008830200081C
:1000B000830200088302000883020008830200080C
:1000C00083020008830200088302000883020008FC
:1000D0008302000883020008830200080000000079
:1000E0008302000883020008830200080000000069
:1000F0000000000000000000000000008302000873
:100100000000000083020008830200088302000848
:1001100000000000000000000000000000000000DF
:10012000830200088302000883020008830200089B
:100130008302000800000000000000000000000032
:100140000000000000000000000000008302000822
:10015000830200088302000883020008830200086B
:100160008302000883020008000000000000000075
:10017000000000000000000000000000000000007F
:1001800000000000830200080000000000000000E2
:100190008302000800F002F800F057F814A696E871
:1001A000000CB244B344DA4501D100F04EF8BAE88D
:1001B0000F000FA696E83000A5EB040504EB060738
:1001C000AAEB0704A7F101074FEA15154FEA34140B
:1001D000A4F10104AC4201D300F037F813F0010F91
:1001E00018BFFB1A43F0010300F001F8DBE71847E2
:1001F0005829000078290000103A24BF78C878C137
:10020000FAD8520724BF30C830C144BF04680C601C
:1002100070470000704700000023002400250026DE
:10022000103A28BF78C1FBD8520728BF30C148BF59
:100230000B607047642900F0F780002070471FB5FD
:1002400002F06AFC1FBD10B510BD00F0CAF91146DE
:10025000FFF7F5FF01F0E8FB00F0E8F903B4FFF762
:10026000F2FF03BC00F0F0F9094880470948004755
:10027000FEE7FEE7FEE7FEE7FEE7FEE7FEE7FEE756
:10028000FEE7FEE704480549054A064B70470000B3
:10029000AD18000895010008C0000020C00600202D
:1002A000C0020020C002002053EA020C00F0698066
:1002B0002DE9F04B4FF00006002B1FBFB3FA83F57A
:1002C00003FA05F424FA05F65E4012BF1643B2FAAB
:1002D00082F502FA05F4C5F120051EBF22FA05FCDD
:1002E00044EA0C04203556EA044C4FEA144418BF83
:1002F000641C4FF000084FF00009904271EB030CB2
:1003000039D3002919BFB1FA81F701FA07F6B0FA1B
:1003100080F700FA07F6C7F120071EBF20FA07FC96
:1003200046EA0C062037B6FBF4FCA7EB0507103FA6
:1003300007F01F0BCBF120062CFA06F60CFA0BFB8C
:1003400044BFB3460026202FA4BF5E464FF0000BEB
:100350005BEA060C08BF4FF0010B19EB0B0948EBE9
:100360000608ABFB027C06FB02CC0BFB03CCC01BDC
:1003700071EB0C01C1E70B46024641464846BDE819
:10038000F08B13B5084318BF4FF0FF300146AFF3B1
:100390000080BDE81C4070470FB41CB5074B06AA8F
:1003A0007B4469460090059800F003F900206946F7
:1003B00000F012F91CBC5DF814FB000035020000CF
:1003C0002DE9F0410E460446002020622046E168F7
:1003D000884730B3252805D0D4E901219047206A09
:1003E000401CF2E7E168204600278847050018D046
:1003F000A5F14100192802D820354FF40067324694
:10040000294620462760FFF715FF40B1012804D098
:10041000F61D26F007060836D8E7361DD6E728462B
:10042000DAE7206ABDE8F0812DE9F04106460024B4
:1004300010687529314616A510D0AFF3008000284A
:1004400002DA404213A507E031688A0701D512A5F8
:1004500002E0490704D511A5012401E0AFF30080B3
:1004600000210A2206F1240709E0B0FBF2FCB0FBF0
:10047000F2F302FB1C00303078541846491C002867
:10048000F3D123462A463046BDE8F04100F032B8A9
:10049000000000002D0000002B00000020000000E4
:1004A0004FF0000200B5134694469646203922BF0D
:1004B000A0E80C50A0E80C50B1F12001BFF4F7AF58
:1004C000090728BFA0E80C5048BF0CC05DF804EB3A
:1004D000890028BF40F8042B08BF704748BF20F8A8
:1004E000022B11F0804F18BF00F8012B70477047A6
:1004F000704770472DE9F0470D46994692460446ED
:1005000000F124080168880604D5E06921F0100193
:10051000216000E00120A84201DD471B00E0002728
:10052000A1697A1902EB0900081AA0612078C006B7
:1005300002D42046AFF30080002608E0D4E9012170
:100540001AF806009047206A401C761C20624E452F
:10055000F4DB2078C0060AD52046AFF3008006E021
:10056000D4E9012130209047206A401C2062381EC7
:10057000A7F10107F4DC07E0D4E9012118F8050030
:100580009047206A401C2062281EA5F10105F3DC7B
:100590002046AFF300802078000602D50220BDE897
:1005A000F0870120FBE7000001694A1C026108781E
:1005B000704700B58FB0CDE90131002105910549A3
:1005C0007944CDE9031011466846FFF7F9FE0FB0F4
:1005D00000BD0000E5FFFFFF0A6802F8010B0A609A
:1005E0007047754600F02CF8AE4605006946534644
:1005F00020F00700854618B020B5FFF743FEBDE8A0
:1006000020404FF000064FF000074FF000084FF079
:10061000000BAC46ACE8C009ACE8C009ACE8C009C6
:10062000ACE8C00921F007018D46704710B50446BB
:10063000AFF300802046BDE81040FFF70FBE00007A
:10064000004870471000002001491820ABBEFEE7AB
:100650002600020070470000FEE70000704700001F
:10066000B3EE091AB4EE410AF1EE10FA02DB0122F0
:1006700009E000BFB3EE022AB4EE420AF1EE10FA2E
:10068000C8BF7047002210B540F600400024B4EE09
:10069000410AC4F202000121F1EE10FAA8BF0124C0
:1006A00000F0D0FB40F27000C2F200000470BDE820
:1006B0001040704740F27000C2F2000000787047AE
:1006C00010B540F60040C4F20200012100220024CF
:1006D00000F0B8FB40F27000C2F20000047010BDE0
:1006E00010B540F60040C4F20200012100220024AF
:1006F00000F0A8FB40F27000C2F20000047010BDD0
:1007000010B540F60040C4F202000121012201248C
:1007100000F098FB40F27000C2F20000047010BDBF
:1007200070B581B00022009290F83C20012A03D1DC
:10073000022001B070BD00BFD1F800E001221FFA15
:100740008EFC4FEA4C0380F83C200EEB4E0213FA6D
:100750008EF31024BEF1090F88BFA3F11E0288BFDB
:100760000C24036807251E59954026EA05051D51EE
:100770008D681E5905FA02F232431A51496806295A
:1007800006D801EB81014A1F194651F8345F0EE08B
:100790000C2901EB810105D8A1F12302194651F87A
:1007A000305F04E0A1F14102194651F82C5F1F248B
:1007B000944025EA04040C600CFA02F20C6842F240
:1007C000043CC4F2010C2243ACF54174A3420A601C
:1007D0003ED1BEF1120F07D1DCF8001041F48001C8
:1007E000CCF8001034E000BF2EF0010110292FD109
:1007F000DCF80010BEF1100F41F40001CCF800103D
:1008000026D140F20801C2F2000109684DF6836268
:10081000C4F21B32A1FB0212910C01EB81014900D1
:1008200000910099A1B1009901390091009979B125
:10083000009901390091009951B100990139009155
:10084000009929B100990139009100990029EAD154
:10085000002180F83C10002001B070BD0068C06C21
:1008600070470000002804BF0120704710B5016CDC
:1008700000293DD0016CC90645D4016C41F2021239
:100880009143023142F204320164C4F20102116860
:1008900021F440311160136890E812102343D0F81E
:1008A00010E013604A68012422F480724A604A68AA
:1008B000C0F6007442EA0E224A604A6822F0407292
:1008C0004A604A6842EA0C024A608A6822F400627E
:1008D0008A60C2688B681A438A60826A8B68A24207
:1008E00023F070638B608B6810D123F0405216E0C8
:1008F000044600F065F820460021616484F83C104D
:10090000016CC906B9D5012153E000BF1A438A60C2
:100910008A6822F040528A60C26A8B681A438A60F1
:100920008A6822F002028A608A68037E90F820407A
:1009300042EA43028A604A6884B142F400624A6033
:100940004A684EF2000322F460424A60426ACFF6DF
:10095000FF734C6803EB4232224301E022F4006251
:100960004A60CA6A40F2000C22F47002CA62C3698B
:100970004269CFF6F07CCC6A0CEB03532343CB6285
:100980008B6823F400738B6090F830308C6844EAF5
:1009900043238B608B6823F480638B608B6843EA0E
:1009A00082228A6000214164026C012363F3010208
:1009B0000264002280F83C20BDE8104008467047E1
:1009C00080B586B042F200010068C4F20101002245
:1009D00088420592CDE903220292019202D006B02C
:1009E00080BD00BF43F630000092C4F202004369AC
:1009F00043F480734361436903F480730093009B65
:100A00000092036843F001030360006800F00100F6
:100A1000009000980320CDE9010001F5604001A994
:100A2000039200F039F906B080BD000070B50446AD
:100A300000680D468268520544BF80685FEAC05076
:100A400038D400F005FA21680A68920749D40646AE
:100A5000681C3CD0DDB90868800721D5086880078C
:100A60003FD4086880071BD50868800739D4086818
:100A7000800715D50868800733D4086880070FD52C
:100A800008688007E7D52CE00868800729D400F0C3
:100A9000DFF9801B2168A842F6D908688007F3D4E3
:100AA000206C40F004002064002084F83C00032007
:100AB00070BD00BF206C40F020002064002084F84E
:100AC0003C00012070BD00BF0868800709D4086899
:100AD000800706D4086880075CBF08685FEA8070FA
:100AE000F2D56FF012000860206C40F400702064B2
:100AF000886810F0405F01D0002070BD207E002883
:100B0000FAD1C86A10F4700F02D088684005F3D497
:100B1000206C20F480702064206CC004ECD4206C25
:100B200040F001002064002070BD000010B581B0CD
:100B30000021009190F83C10012903D1022001B05E
:100B400010BD00BF0468012180F83C10214651F817
:100B5000083FDB0729D10B684DF6836243F00103A0
:100B60000B6040F20803C2F200031B68C4F21B32A0
:100B7000A3FB02239A0C02EB42020092009AA2B15C
:100B8000009A013A0092009A7AB1009A013A0092D2
:100B9000009A52B1009A013A0092009A2AB1009A42
:100BA000013A0092009A002AEAD10A68036CD2073F
:100BB0000CD143F01001016400F1440101200A68E6
:100BC00010430860002001B010BD00BF40F2017268
:100BD00023EA020202F5807202646268520504D5BB
:100BE000026C012363F30D320264026C4FF0000CBF
:100BF0000023D20444BF426C22F0060342F2000EEE
:100C0000436480F83CC06FF02200C4F2010E206003
:100C1000DEF80403C00609D074450BD1DEF80800E5
:100C200010F0405F06D14FF08040C8E7086810F030
:100C3000405FF8D0002001B010BD000090F83C10DB
:100C4000012904BF0220704701688A6822F001026E
:100C50008A608968C90705D1016C41F2011291438C
:100C600001310164002180F83C1000207047000031
:100C7000B0B5044600F0ECF8054640F20000C2F2C0
:100C800000000078611C18BF044400BF00F0E0F8C9
:100C9000401BA042FAD3B0BD2DE9F04F83B000F164
:100CA000200200F13E4741F20005009207F1FF7774
:100CB000C4F2020507224FEAB726A84208BF042261
:100CC00000254FF000084FF00009042E38BF4FEA0E
:100CD000B72201920AE000BF09F1010908F10208F8
:100CE000B9F1100F05F1040500F0A2800F68012290
:100CF00002FA09FE17EA0E0AEED0D1F804C0032268
:100D00000CF003077E1E02FA08F4012E6FEA040BB2
:100D100012D88468CE6804EA0B0406FA08F6344355
:100D20008460446824EA0E06CCF3001404FA09F443
:100D30002643466004E000BF032F01D103271EE0D5
:100D4000C6688C6806EA0B0604FA08F42643022FEC
:100D5000C66014D16FF00302009E02EA590756F8EC
:100D600007C005F01C040F220B69A2402CEA020206
:100D7000A3401A43F251D1F804C00CF003070268F3
:100D800007FA08F302EA0B021A431CF4403F026020
:100D9000A2D0002243F644030292C4F202031A686E
:100DA00043F6004442F480421A601A68C4F2010417
:100DB00002F480420292029A29F003024FF6084C94
:100DC0002244CFF6FF7C52F80C3005F00C070F26BA
:100DD000BE40B343019E06FA07F73B4342F80C308E
:100DE000A2684B6842EA0A0743F60C4CDE0258BF81
:100DF00022EA0A07A760C4F2010CDCF800209E0278
:100E000042EA0A0758BF22EA0A07CCF80070626873
:100E10009E0342EA0A0758BF22EA0A07676022686F
:100E2000DB0342EA0A0758BF22EA0A07276053E7B2
:100E300003B0BDE8F08F00000069084018BF012032
:100E400070470000002A08BF090481617047000054
:100E500040F2BC00C2F200000068704740F200009F
:100E600040F2BC01C2F20000C2F2000100780A6840
:100E7000104408607047000080B543F60040C4F29B
:100E80000200016841F400710160016841F4806171
:100E90000160016841F480710160032000F074F882
:100EA0000F2000F005F800F027F8002080BD0000BA
:100EB00070B540F20006C2F2000640F20801327836
:100EC000C2F200014FF47A730968B3FBF2F20446F0
:100ED000B1FBF2F1084600F027FB0F2C4FF00105A3
:100EE00008D838B94FF0FF3021460022002500F025
:100EF0001FF87460284670BD82B0002043F64001A0
:100F00000190C4F202014A6842F480424A604A6891
:100F100002F480420192019A0090086840F08050EB
:100F20000860086800F080500090009802B0704798
:100F300010B54EF60C5CCEF2000CDCF80030C3F3BA
:100F4000022E8EF00704042C28BF0424BEF10303F4
:100F50004FF0FF3E0EFA04F438BF0023A14399403E
:100F60000EFA03F39A43114300F00F0200F16043BD
:100F70000901043A03F564436244002848BF02F1C2
:100F80000C03197010BD00004EF60C51CEF200019A
:100F90000A684FF6FF031A4060F30A2242F08060AD
:100FA00040F0FD7008607047002804BF01207047C2
:100FB0002DE9F04143F60808C4F202080446D8F8C7
:100FC000F8030D4600F00700814207D988F8F8536E
:100FD000D8F8F80300F00700A84277D1206881070D
:100FE00017D5410705D5D8F8001041F4E051C8F8ED
:100FF0000010010705D5D8F8001041F46041C8F889
:101000000010D8F80010A26821F0F0011143C8F8D0
:101010000010C00740D1D8F8F80300F0070085425F
:1010200007D288F8F853D8F8F80300F00700A84270
:101030004CD12068410707D5D8F80010E26821F4A8
:10104000E0511143C8F80010000708D5D8F8000097
:10105000216920F4604040EAC100C8F8000000F0B7
:1010600055F8D8F8001042F63232C1F30311C0F639
:101070000002515C40F2080220FA01F140F2040043
:10108000C2F200000068C2F200021160FFF710FF18
:101090000020BDE8F08100BF6068811E022907D2F0
:1010A00058F8081C89015CBF0120BDE8F08111E0FF
:1010B000012807D158F8081C89035CBF0120BDE84E
:1010C000F08107E058F8081C890703D40120BDE827
:1010D000F08100BFD8F8001021F003010843C8F8E0
:1010E0000000FFF7B5FE064641F28837D8F8000049
:1010F000616800F00C00B0EB810F8CD0FFF7A8FE08
:10110000801BB842F2D90320BDE8F08110B543F648
:101110000404C4F202046168C1F3810142F2004098
:10112000C0F2F400DFE801F002040A0210BD00BFC3
:1011300047F64000C0F27D1010BD00BF2068216856
:101140002368490247F64001C0F27D1100F03F02DA
:10115000C3F388105CBF42F20041C0F2F401A1FB6E
:1011600000010023FFF7A0F821680222C1F301412A
:1011700002EB4101B0FBF1F010BD0000002804BFFC
:10118000012070472DE9F04182B00446007843F613
:101190000006C007C4F202060CD0B06800F00C00D4
:1011A000042840F081803068800303D560680028FF
:1011B00000F06881207880071BD5B06810F00C0F14
:1011C00009D0B06800F00C00082840F087807068F3
:1011D000400200F183803068800703D5E068012871
:1011E00040F050813068216920F0F80040EAC100E9
:1011F00030602078000713D4207840072AD4A569EE
:10120000002D00F03A81B06800F00C00082840F092
:10121000A580012D40F00E81012002B0BDE8F081D3
:101220006069002800F082800020C4F2472001217C
:10123000C0F8801EFFF70CFE054600BF706F8007E8
:10124000DAD4FFF705FE401B0228F7D9032002B0CD
:10125000BDE8F081306C5FEAC0080AD4002001903C
:10126000306C40F080503064306C00F08050019061
:10127000019847F20007C4F200073868C00547D458
:10128000386840F480703860FFF7E2FD054600BF23
:101290003868C0053CD4FFF7DBFD401B0228F7D9B6
:1012A000032002B0BDE8F081B06800F00C0008280F
:1012B00003D1706840023FF576AF61683068B1F5E0
:1012C000803F07D0B1F5A02F40F09A8040F48020F5
:1012D0003060306840F4803030609AE0E068002888
:1012E00040F20000C4F247205CD001210160FFF70A
:1012F000AFFD0546306880073FF574AFFFF7A8FDE6
:10130000401B0228F6D9032002B0BDE8F08100BFDF
:10131000A168306F012905D0052955D140F004009E
:101320003067306F40F00100306756E00020C4F2B3
:1013300047200021C0F8801EFFF78AFD054600BF48
:10134000706F80077FF558AFFFF782FD401B0228C2
:10135000F6D9032002B0BDE8F08100BF0027C4F237
:10136000472700203866FFF773FD022D05460DD193
:101370003068800140F18A80FFF76AFD401B022837
:101380004FF00300F4D902B0BDE8F081306880016D
:1013900073D5FFF75DFD401B02284FF00300F5D920
:1013A000F1E700BF00210160FFF752FD054600BFD5
:1013B000306880077FF51DAFFFF74AFD401B02280C
:1013C0004FF00300F4D9DEE720F001003067306F02
:1013D000002920F0040030677AD0FFF739FD054678
:1013E00041F28837306F800700F18480FFF730FDCD
:1013F000401BB842F6D9032002B0BDE8F08100BF1F
:1014000020F4803030603068002920F48020306083
:101410007AD0FFF71DFD0546306880033FF5CAAE60
:10142000FFF716FD401B6428F6D9032002B0BDE883
:10143000F08100BF7068E16900F480028A4221D126
:10144000216A00F03F028A421CD147F6C071626AED
:101450000140B1EB821F15D1A16A4FF6FF73C9039A
:10146000994300F44032A1F580318A420AD1E16A01
:1014700000F07060B0EB016F04D1002002B0BDE855
:10148000F08100BF012002B0BDE8F08104F11C052D
:101490002FCD084340EA8210D9034FF6FF729143E3
:1014A000A1F5803140EA056008437060012038668C
:1014B000FFF7CEFC044600BF30688001DDD4FFF7A3
:1014C000C7FC001B02284FF00300F5D95BE700BF03
:1014D000FFF7BEFC054641F2883700BF306F80073A
:1014E00008D5FFF7B5FC401BB8424FF00300F5D913
:1014F00049E700BFB8F1000F3FF581AE306C20F036
:10150000805030647BE600BFFFF7A2FC054600BFB9
:10151000306880037FF54EAEFFF79AFC401B6428CD
:101520004FF00300F4D92EE7411E0020B0EB116FFD
:101530001CBF012070474EF21002CEF20002516033
:101540004EF62351CEF20001F0230B70072190607C
:1015500011607047FEE70000B0B540F20044C4F2ED
:1015600002040546204601210122FFF76BFCC5F36A
:10157000001220461021FFF765FCC5F340122046FB
:101580002021FFF75FFCC5F3801220464021FFF7C2
:1015900059FCEA0920468021FFF754FC204602212D
:1015A0000122FFF74FFC0120FFF762FB20460221DA
:1015B0000022FFF747FC0120FFF75AFB05F001026C
:1015C00020461021FFF73EFCC5F3400220462021B3
:1015D000FFF738FCC5F3800220464021FFF732FCBC
:1015E000C5F3C00220468021FFF72CFC20460221D3
:1015F0000122FFF727FC0120FFF73AFB20460221DA
:101600000022FFF71FFC0120FFF732FB0220BDE89C
:10161000B040FFF72DBB000080B5012000F006F8B8
:101620000220BDE88040FFF723BB0000B0B540F2C8
:101630000044C4F202040546204601210022FFF7BF
:1016400001FCC5F3001220461021FFF7FBFBC5F398
:10165000401220462021FFF7F5FBC5F380122046FB
:101660004021FFF7EFFBEA0920468021FFF7EAFB64
:10167000204602210122FFF7E5FB0120FFF7F8FADF
:10168000204602210022FFF7DDFB0120FFF7F0FAE0
:1016900005F0010220461021FFF7D4FBC5F34002FC
:1016A00020462021FFF7CEFBC5F3800220464021D3
:1016B000FFF7C8FBC5F3C00220468021FFF7C2FB3D
:1016C000204602210122FFF7BDFB0120FFF7D0FADF
:1016D000204602210022FFF7B5FB0120FFF7C8FAE0
:1016E0000220BDE8B040FFF7C3BA000010B53220B9
:1016F000FFF7BEFA40F20044C4F202042046012182
:101700000022FFF79FFB204602210022FFF79AFBF1
:10171000204610210122FFF795FB204620210122BF
:10172000FFF790FB204640210022FFF78BFB20466D
:1017300080210022FFF786FB204602210122FFF7CD
:1017400081FB0120FFF794FA204602210022FFF7D7
:1017500079FB0120FFF78CFA0520FFF789FA204674
:1017600010210122FFF76EFB204620210122FFF706
:1017700069FB204640210022FFF764FB20468021C0
:101780000022FFF75FFB204602210122FFF75AFBF0
:101790000120FFF76DFA204602210022FFF752FBDD
:1017A0000120FFF765FA0520FFF762FA20461021B5
:1017B0000122FFF747FB204620210122FFF742FBD1
:1017C000204640210022FFF73DFB204680210022D9
:1017D000FFF738FB204602210122FFF733FB0120EF
:1017E000FFF746FA204602210022FFF72BFB0120DB
:1017F000FFF73EFA0520FFF73BFA204610210022B2
:10180000FFF720FB204620210122FFF71BFB20468B
:1018100040210022FFF716FB204680210022FFF71F
:1018200011FB204602210122FFF70CFB0120FFF7EC
:101830001FFA204602210022FFF704FB0120FFF7D8
:1018400017FA2820FFF7F2FE0C20FFF7EFFE062024
:10185000FFF7ECFE0120FFF7E9FE0520BDE8104090
:10186000FFF706BAA1F14002002808BF81F080020C
:10187000D0B2FFF7DBBE00000178002908BF704737
:1018800010B5441EC8B2FFF767FEA17801340029E5
:10189000F8D1BDE810407047FEE70000FEE7000009
:1018A0007047000070470000FFF7D8BA4EF6885026
:1018B000CEF20000016841F4700101607047000041
:1018C000B0B52DED028B84B0B0EE408ABDEEC00AFB
:1018D000B8EEC01A10EE102A38EE410AB2EE041A21
:1018E00020EE010ABDEEC00A6D4641F2000410EE82
:1018F000103A22A12846C4F20204FEF74DFDFFF77C
:101900008BFE00200021FFF7ADFF2846FFF7B4FF54
:1019100001200021FFF7A6FFB3EE020AB4EE408AD1
:10192000F1EE10FA06DA21A0FFF7A6FF2046042107
:10193000012217E0B3EE090AB4EE408AF1EE10FA84
:101940000ADD16A0FFF798FF204608210122FFF7C5
:1019500079FA042109E000BF0CA0FFF78DFF2046B3
:1019600004210022FFF76EFA082120460022FFF72B
:1019700069FA04B0BDEC028BB0BD00BF54656D7058
:101980003A2025642E2564204300000054656D70C4
:10199000204F4B20202020202000000054726F7028
:1019A00020436861756421202000000054726F702C
:1019B0002046726F6964212020000000B0B584B019
:1019C0000446002003900090012001900620029020
:1019D00069462046FEF7A4FE2046FFF7A7F82046FA
:1019E0004FF0FF31FFF722F82046FEF737FF05469C
:1019F0002046FFF723F900EE105A9FED081AB8EEC3
:101A0000400A9FED072A20EE010A20EE020AB2EEFC
:101A1000041A80EE010A04B0B0BD00BF00404E457C
:101A200000008039FEE70000A4B043F6300640F223
:101A30000044C4F20206C4F20204FFF71DFA18AD16
:101A400028463021FEF72CFD00271797CDE91577A2
:101A5000CDE9137712973069022240F0805030614F
:101A6000306900F080501290129846F600401297AC
:101A7000CFF6FE70215862F38F312150205800F4C8
:101A800040401290129801201B9010201C90284674
:101A900018921E97FFF772FB10B172B6FEE700BFF7
:101AA0000F20CDE913078020CDE9150713A80021E9
:101AB0001797FFF779FA18B172B600BFFEE700BFBB
:101AC00000251C95CDE91A55CDE9185513953068B8
:101AD00004F5406A40F01000306030683D2100F0AD
:101AE00010001390139813953068002240F0800086
:101AF0003060306800F080001390139813953068C0
:101B000040F004003060306800F004001390139837
:101B10001395306840F001003060306800F001003B
:101B2000139013981395306840F0020030603068CD
:101B300000F00200139013981395306840F00800ED
:101B4000306030683D2600F008001390139850462E
:101B5000FFF778F92046F7210022FFF773F904F523
:101B6000006840460B210022FFF76CF918AF4FF0D8
:101B70000109504639461896CDE919951B95FFF78E
:101B80008BF8032004F5806618904FF4881B3046CC
:101B90003946CDE919B5FFF77FF8F720CDE91809E7
:101BA00020463946CDE91A55FFF776F84FF4807094
:101BB00018900220CDE91905A4F580603946CDE9D9
:101BC0001B59FFF769F80B20CDE918094046394643
:101BD000CDE91A55FFF760F80420CDE9180B40460F
:101BE00039461A95FFF758F840F274000122A4F51F
:101BF0006441C2F20000C0F600721B95057680F8C1
:101C00002050C0E90A25C0F81C9080F83050C0E987
:101C10000015C0E90255C0E90459FEF723FE18B1CA
:101C200072B600BFFEE700BFCDE918591A9540F221
:101C3000740018ADC2F200002946CDF804A0FEF7EA
:101C40006FFD18B172B600BFFEE700BF6420FFF75A
:101C50000FF8FFF74BFDFEF733FD0120FFF7E6FC21
:101C60005320FFF779FC7920FFF776FC7320FFF70C
:101C700073FC7420FFF770FC6520FFF76DFC6D208E
:101C8000FFF76AFC2020FFF767FC5220FFF764FC97
:101C90006520FFF761FC6120FFF75EFC6420FFF721
:101CA0005BFC7920FFF758FC681E0090002000279D
:101CB0004FF0000A4FF0000B029000BFFFF7C8F88A
:101CC0000299401A41F288318842C0F0F580FFF74E
:101CD000BFF8DDF80490BBF1070F029000F3EE802F
:101CE00040F27400C2F20000A846FFF767FEB0EEB3
:101CF000408AFEF7DFFCB0EE480A0546FEF7B0FC6E
:101D000045B9FEF7D7FC012804D10027FFF7A0F85A
:101D1000824600BFB0EE480AFFF7D2FD4FF4FA60EA
:101D2000FEF7A6FF204601210022FFF78BF8204690
:101D300010210022FFF786F8204620210022FFF71D
:101D400081F8204640210022FFF77CF820468021C0
:101D50000022FFF777F8204602210122FFF772F8F0
:101D60000120FEF785FF204602210022FFF76AF8D6
:101D70000120FEF77DFF204610210122FFF762F8C7
:101D8000204620210022FFF75DF820464021002256
:101D9000FFF758F8204680210022FFF753F820462D
:101DA00002210122FFF74EF80120FEF761FF2046D5
:101DB00002210022FFF746F80120FEF759FF02201A
:101DC000FEF756FF0220FEF753FF204601210022B6
:101DD000FFF738F8204610210022FFF733F820469D
:101DE00020210022FFF72EF8204640210022FFF795
:101DF00029F8204680210122FFF724F820460221FD
:101E00000122FFF71FF80120FEF732FF20460221D2
:101E10000022FFF717F80120FEF72AFF20461021C5
:101E20000022FFF70FF8204620210022FFF70AF8D2
:101E3000204640210022FFF705F82046802100229D
:101E4000FFF700F8204602210122FEF7FBFF0120E8
:101E5000FEF70EFF204602210022FEF7F3FF0120CD
:101E6000FEF706FF0220FEF703FF5320FFF774FB87
:101E70007920FFF771FB7320FFF76EFB7420FFF7EB
:101E80006BFB6520FFF768FB6D20FFF765FB2020EB
:101E9000FFF762FB5220FFF75FFB6520FFF75CFB5B
:101EA0006120FFF759FB6420FFF756FB7920FFF70D
:101EB00053FB454602E000BFDDF80490FEF7FAFB55
:101EC000002F08BF01280FD037B3FEF7C1FFA0EBEA
:101ED0000A00B0F57A7F1BD3FEF712FC4FF0000822
:101EE000FEF7B6FF824619E0FEF7B2FFA0EB0A004C
:101EF00040F6B83188420FD3FEF7F2FBFEF7A8FF99
:101F00008246FEF7A5FFA0EB0A00B0F57A7FE3D288
:101F10004FF0010802E000BF4FF0000830460421F6
:101F2000FEF78AFF012840F0E88000BF3046042118
:101F3000FEF782FF012840F0DD80484601210122A2
:101F4000FEF780FF204601210022FEF77BFF20469E
:101F500010210022FEF776FF204620210022FEF706
:101F600071FF204640210022FEF76CFF20468021B1
:101F70000022FEF767FF204602210122FEF762FFE2
:101F80000120FEF775FE204602210022FEF75AFFCF
:101F90000120FEF76DFE204610210122FEF752FFC0
:101FA000204620210022FEF74DFF2046402100223E
:101FB000FEF748FF204680210022FEF743FF20461F
:101FC00002210122FEF73EFF0120FEF751FE2046CE
:101FD00002210022FEF736FF0120FEF749FE022013
:101FE000FEF746FE0220FEF743FE204601210022B6
:101FF000FEF728FF204610210022FEF723FF20468F
:1020000020210022FEF71EFF204640210022FEF77D
:1020100019FF204680210122FEF714FF20460221ED
:102020000122FEF70FFF0120FEF722FE20460221CB
:102030000022FEF707FF0120FEF71AFE20461021BE
:102040000022FEF7FFFE204620210022FEF7FAFEC6
:10205000204640210022FEF7F5FE20468021002286
:10206000FEF7F0FE204602210122FEF7EBFE0120E2
:10207000FEF7FEFD204602210022FEF7E3FE0120CE
:10208000FEF7F6FD0220FEF7F3FD4120FFF764FAAC
:102090004C20FFF761FA4520FFF75EFA5220FFF768
:1020A0005BFA5420FFF758FA4520FFF755FA202035
:1020B000FFF752FA4120FFF74FFA4320FFF74CFA9F
:1020C0005420FFF749FA4920FFF746FA5620FFF758
:1020D00043FA4520FFF740FA4FF49670FEF7C8FD2B
:1020E000484601210022FEF7ADFE4FF49670FEF740
:1020F000BFFD1BE7C820FEF7BBFD30460121FEF700
:102100009BFE012840F04581BBF1070F00F33881A9
:10211000484604210122FEF795FE204601210022B7
:10212000FEF790FE204610210022FEF78BFE20468F
:1021300020210022FEF786FE204640210022FEF7E5
:1021400081FE204680210022FEF77CFE20460221EF
:102150000122FEF777FE0120FEF78AFD20460221CC
:102160000022FEF76FFE0120FEF782FD20461021BF
:102170000122FEF767FE204620210022FEF762FEC4
:10218000204640210022FEF75DFE204680210022ED
:10219000FEF758FE204602210122FEF753FE0120E1
:1021A000FEF766FD204602210022FEF74BFE0120CD
:1021B000FEF75EFD0220FEF75BFD0220FEF758FDF4
:1021C000204601210022FEF73DFE2046102100227C
:1021D000FEF738FE204620210022FEF733FE20467F
:1021E00040210022FEF72EFE204680210122FEF72C
:1021F00029FE204602210122FEF724FE0120FEF7DF
:1022000037FD204602210022FEF71CFE0120FEF7CA
:102210002FFD204610210022FEF714FE204620212B
:102220000022FEF70FFE204640210022FEF70AFEA4
:10223000204680210022FEF705FE204602210122D1
:10224000FEF700FE0120FEF713FD204602210022CA
:10225000FEF7F8FD0120FEF70BFD0220FEF708FD5A
:102260005020FFF779F96520FFF776F97220FFF724
:1022700073F97320FFF770F96F20FFF76DF96E2087
:10228000FFF76AF96E20FFF767F96520FFF764F939
:102290007320FFF761F93A20FFF75EF9204601212C
:1022A00000220BF1010BFEF7CDFD2046102100228C
:1022B000FEF7C8FD204620210022FEF7C3FD204680
:1022C00040210122FEF7BEFD204680210122FEF7BB
:1022D000B9FD204602210122FEF7B4FD0120FEF7E0
:1022E000C7FC204602210022FEF7ACFD0120FEF7CC
:1022F000BFFC204610210022FEF7A4FD204620212D
:102300000022FEF79FFD204640210022FEF79AFDA5
:10231000204680210022FEF795FD20460221012261
:10232000FEF790FD0120FEF7A3FC204602210022CB
:10233000FEF788FD0120FEF79BFC0220FEF798FCCB
:1023400042F642312846C0F600015A462F46FEF7B3
:1023500023F89DF8600040B1009D00BFC0B2FFF7B8
:10236000FBF8A87801350028F8D140F6B830FEF720
:102370007FFC484604210022FEF764FD3D4600BF75
:1023800030460121FEF758FD0128F9D0C820FEF79C
:102390006FFC30460221FEF74FFD012840F04681D8
:1023A000484608210122FEF74DFD2046012100226A
:1023B000FEF748FD204610210022FEF743FD20468F
:1023C00020210022FEF73EFD204640210022FEF79C
:1023D00039FD204680210022FEF734FD20460221EF
:1023E0000122FEF72FFD0120FEF742FC20460221CC
:1023F0000022FEF727FD0120FEF73AFC20461021BF
:102400000122FEF71FFD204620210022FEF71AFDC3
:10241000204640210022FEF715FD204680210022A3
:10242000FEF710FD204602210122FEF70BFD0120E0
:10243000FEF71EFC204602210022FEF703FD0120CC
:10244000FEF716FC0220FEF713FC0220FEF710FC3C
:10245000204601210022FEF7F5FC20461021002233
:10246000FEF7F0FC204620210022FEF7EBFC204680
:1024700040210022FEF7E6FC204680210122FEF7E3
:10248000E1FC204602210122FEF7DCFC0120FEF7E0
:10249000EFFB204602210022FEF7D4FC0120FEF7CC
:1024A000E7FB204610210022FEF7CCFC204620212D
:1024B0000022FEF7C7FC204640210022FEF7C2FCA6
:1024C000204680210022FEF7BDFC20460221012289
:1024D000FEF7B8FC0120FEF7CBFB204602210022CC
:1024E000FEF7B0FC0120FEF7C3FB0220FEF7C0FBA5
:1024F0005020FFF731F86520FFF72EF87220FFF724
:102500002BF87320FFF728F86F20FFF725F86E20CF
:10251000FFF722F86E20FFF71FF86520FFF71CF881
:102520007320FFF719F83A20FFF716F8204601212B
:102530000022BBF1000FC8BFABF1010BFEF782FC1C
:10254000204610210022FEF77DFC2046202100229B
:10255000FEF778FC204640210122FEF773FC20465E
:1025600080210122FEF76EFC204602210122FEF7A7
:1025700069FC0120FEF77CFB204602210022FEF7C9
:1025800061FC0120FEF774FB204610210022FEF7BB
:1025900059FC204620210022FEF754FC2046402111
:1025A0000022FEF74FFC204680210022FEF74AFC65
:1025B000204602210122FEF745FC0120FEF758FBD0
:1025C000204602210022FEF73DFC0120FEF750FBD1
:1025D0000220FEF74DFB42F642312846C0F60001CC
:1025E0005A462F46FDF7D8FE9DF8600038B1009D91
:1025F000C0B2FEF7B1FFA87801350028F8D140F647
:10260000B830FEF735FB484608210022FEF71AFCD9
:1026100030460221FEF710FC0128F9D0C820CDF881
:1026200044B0FEF725FB3D4602E000BFCDF844B0C4
:1026300040F2740700210120C2F200071B91CDE98E
:1026400018001A9138462946FEF76AF83846FEF710
:102650006DFA38460A21FEF7E9F93846FEF7FEF82A
:1026600005463846FEF7EAFA28097C28CDE90F8AA4
:1026700028D8484630210122FEF7E4FB4E2008907E
:102680004F2006907320059065200B9070200E90CF
:102690006D200D9061200C9032200A904C20039008
:1026A000202009904C20079020204FF020084FF068
:1026B00045094FF0420A492741254FF0460B049047
:1026C00054E000BF40F6B730854229D84846102173
:1026D0000122FEF7B7FB4846202100222023099360
:1026E000FEF7B0FB65200B9070200E906D200D90D2
:1026F00061200C904C20079031200A904E200390CE
:10270000202005904F204FF0450A59274F254FF0C4
:102710004D0B4FF04E094FF0450804904E2022E03B
:10272000484630210022FEF78DFB73200E90652075
:102730000D9070200C906D200790612009904C2026
:102740000A904520039020200B904F204FF0200945
:102750004FF0540A52274F254FF0460B4FF02008F8
:1027600005904620049006902020089020460121E4
:102770000022FEF767FB204610210022FEF762FBD5
:10278000204620210022FEF75DFB2046402100224A
:10279000FEF758FB204680210122FEF753FB20461E
:1027A00002210122FEF74EFB0120FEF761FA2046CE
:1027B00002210022FEF746FB0120FEF759FA2046CF
:1027C00010210022FEF73EFB204620210022FEF7CA
:1027D00039FB204640210022FEF734FB20468021B1
:1027E0000022FEF72FFB204602210122FEF72AFBE2
:1027F0000120FEF73DFA204602210022FEF722FBCF
:102800000120FEF735FA0220FEF732FA4C20FEF7DF
:10281000A3FE7520FEF7A0FE6D20FEF79DFE692049
:10282000FEF79AFE6520FEF797FE7220FEF794FEF3
:102830006520FEF791FE2020FEF78EFE5846FEF73B
:102840008BFE2846FEF788FE3846FEF785FE50468A
:10285000FEF782FE0398FEF77FFE4846FEF77CFEF9
:102860004046FEF779FE204601210022FEF7EAFAF3
:10287000204610210022FEF7E5FA20462021002202
:10288000FEF7E0FA204640210122FEF7DBFA20465F
:1028900080210122FEF7D6FA204602210122FEF70E
:1028A000D1FA0120FEF7E4F9204602210022FEF7CA
:1028B000C9FA0120FEF7DCF9204610210022FEF7BC
:1028C000C1FA204620210022FEF7BCFA2046402112
:1028D0000022FEF7B7FA204680210022FEF7B2FA66
:1028E000204602210122FEF7ADFA0120FEF7C0F9D1
:1028F000204602210022FEF7A5FA0120FEF7B8F9D2
:102900000220FEF7B5F90A98FEF726FE0998FEF7B1
:1029100023FE0798FEF720FE0C98FEF71DFE0D988B
:10292000FEF71AFE0E98FEF717FE0B98FEF714FE40
:102930000598FEF711FE0498FEF70EFE0698FEF7C6
:102940000BFE0898FEF708FE2020FEF705FE20206B
:10295000FEF702FE2020FEF7FFFD2020FEF7FCFD23
:10296000DDF844B0DDE90F7ABBF1080F18ADFFF6D2
:10297000A5A9204601210022FEF764FA2046102175
:102980000022FEF75FFA204620210022FEF75AFAC5
:10299000204640210022FEF755FA204680210022E1
:1029A000FEF750FA204602210122FEF74BFA0120E1
:1029B000FEF75EF9204602210022FEF743FA0120CD
:1029C000FEF756F9204610210122FEF73BFA204679
:1029D00020210022FEF736FA204640210022FEF791
:1029E00031FA204680210022FEF72CFA20460221EF
:1029F0000122FEF727FA0120FEF73AF920460221CC
:102A00000022FEF71FFA0120FEF732F90220FEF73E
:102A10002FF90220FEF72CF9204601210022FEF7B3
:102A200011FA204610210022FEF70CFA2046202140
:102A30000022FEF707FA204640210022FEF702FAA4
:102A4000204680210122FEF7FDF9204602210122C5
:102A5000FEF7F8F90120FEF70BF9204602210022CB
:102A6000FEF7F0F90120FEF703F9204610210022BD
:102A7000FEF7E8F9204620210022FEF7E3F9204680
:102A800040210022FEF7DEF9204680210022FEF7D9
:102A9000D9F9204602210122FEF7D4F90120FEF7E0
:102AA000E7F8204602210022FEF7CCF90120FEF7CC
:102AB000DFF80220FEF7DCF85320FEF74DFD612021
:102AC000FEF74AFD6C20FEF747FD6C20FEF744FD43
:102AD0006520FEF741FD2020FEF73EFD4320FEF776
:102AE0003BFD6F20FEF738FD6D20FEF735FD7020B1
:102AF000FEF732FD6C20FEF72FFD6520FEF72CFD62
:102B00007420FEF729FD6520FEF726FD4FF47A704C
:102B1000FEF7AEF8FFF7D2B8F1EE100A4FF6FF71EC
:102B2000C0F2C03120EA010040F04070E1EE100A2E
:102B300070470000000000000000010203040607C7
:102B40000809256400000000682B00080000002030
:102B500010000000F8010008782B00081000002089
:102B6000B00600001802000801000000100000007C
:082B70000024F4000000000045
:040000050800019559
:00000001FF
